:020000040800F2
:100000000000022069020008B9020008B9020008D5
:10001000B9020008B9020008B90200080000000097
:10002000000000000000000000000000B90200080D
:10003000B902000800000000B9020008B902000877
:10004000B9020008B9020008B9020008B9020008A4
:10005000B9020008B9020008B9020008B902000894
:10006000B9020008B9020008B9020008B902000884
:10007000B9020008B9020008B9020008B902000874
:10008000B9020008B9020008B90200080000000027
:10009000000000000000000000000000B90200089D
:1000A000B9020008B9020008B9020008B902000844
:1000B000B9020008B9020008B9020008B902000834
:1000C000B9020008B9020008B9020008B902000824
:1000D000B9020008B9020008B902000800000000D7
:1000E000B9020008B9020008B902000800000000C7
:1000F000000000000000000000000000B90200083D
:1001000000000000B9020008B9020008B9020008A6
:1001100000000000000000000000000000000000DF
:10012000B9020008B9020008B9020008B9020008C3
:10013000B9020008000000000000000000000000FC
:10014000000000000000000000000000B9020008EC
:10015000B9020008B9020008B9020008B902000893
:10016000B9020008B9020008000000000000000009
:10017000000000000000000000000000000000007F
:10018000000000000000000000000000000000006F
:08019000B9020008B9020008E1
:1001980010B5054C237833B9044B13B10448AFF3B9
:1001A80000800123237010BD000000200000000023
:1001B8000403000808B5034B1BB103490348AFF318
:1001C800008008BD000000000400002004030008AF
:1001D80080B485B000AF1E4BBB601E4B7B601E4BCE
:1001E8003B60BB681B6843F00102BB681A607B6810
:1001F8001B6823F440627B681A607B681B6843F4C1
:1002080080627B681A603B681B6843F020023B6889
:100218001A603B681B6843F020023B681A600023A1
:10022800FB6002E0FB680133FB60FB680B4A93420A
:10023800F8D93B6800221A600023FB6002E0FB68E3
:100248000133FB60FB68054A9342F8D9E1E700BF38
:100258003038024000000240140002407F841E0033
:100268000D488546AFF300800C480D490D4A002320
:1002780002E0D458C4500433C4188C42F9D30A4A53
:100288000A4C002301E013600432A242FBD300F0C1
:1002980011F8FFF79DFFFEE7000002200000002094
:1002A8000000002024030008000000201C0000209B
:1002B800FEE7000070B50D4D0D4C641BA410002620
:1002C800A64209D10B4D0C4C00F018F8641BA41081
:1002D8000026A64205D170BD55F8043B9847013663
:1002E800EEE755F8043B98470136F2E71C0300088F
:1002F8001C0300081C03000820030008F8B500BF11
:10030800F8BC08BC9E467047F8B500BFF8BC08BCEE
:040318009E46704746
:04031C00BD01000817
:040320009901000837
:040000050800026984
:00000001FF
